:020000040002F8
:10600000985B0020C1630200C9630200CB630200F9
:10601000CD630200CF630200D163020000000000E4
:10602000000000000000000000000000D363020038
:10603000D563020000000000D7630200D9630200AC
:1060400039670200DB630200396B0200DB63020088
:10605000DB630200DB63020071650200DB630200A8
:10606000DB630200DB630200DB630200DB63020030
:10607000DB630200DB630200DB630200DB63020020
:10608000DB63020091670200DB630200DB63020056
:1060900015680200DB63020019680200DB6302007E
:1060A000DB630200DB630200DB630200DB630200F0
:1060B000DB630200DB630200000000000000000060
:1060C000DB630200DB630200DB630200DB630200D0
:1060D000DB630200DB630200DB6302000000000000
:1060E00000000000000000000000000000000000B0
:1060F00000000000000000000000000000000000A0
:10610000000000000000000000000000000000008F
:10611000000000000000000000000000000000007F
:10612000000000000000000000000000000000006F
:10613000000000000000000000000000000000005F
:10614000000000000000000000000000000000004F
:10615000000000000000000000000000000000003F
:10616000000000000000000000000000000000002F
:10617000000000000000000000000000000000001F
:10618000000000000000000000000000000000000F
:1061900000000000000000000000000000000000FF
:1061A00000000000000000000000000000000000EF
:1061B00000000000000000000000000000000000DF
:1061C00000000000000000000000000000000000CF
:1061D00000000000000000000000000000000000BF
:1061E00000000000000000000000000000000000AF
:1061F000000000000000000000000000000000009F
:10620000DFF80CD000F076F900480047ED8E020070
:10621000985B002030B450E8012F93B2C489234426
:106220008489A34228BF1B1B0489A34202BFBFF37A
:106230002F8F002007E0C3EA020340E80134002C5E
:10624000E9D14FF001000A6030BC704750E8012FDF
:10625000C2EA024240E801210029F7D1704730B478
:1062600050E8022F1FFAA2F3C488A34202BFBFF373
:106270002F8F00200DE0C48923448489A34228BFC6
:106280001B1BC2EA034340E80234002CE8D14FF064
:1062900001000A6030BC704750E8022FC2EA224277
:1062A00040E802210029F7D17047034653E8022F46
:1062B000D988B2EB324F4FF0000017BF92B241EADB
:1062C000014142EA014104E05A68B2EB324F08BF93
:1062D000012043E80212002AE8D1704730B4044696
:1062E00054E8000F0D4644E80053002BF8D1156028
:1062F00030BC704730B4044654E8000F40EA010552
:1063000044E80053002BF7D1156030BC704730B41F
:10631000044654E8000F00EA010544E80053002B4E
:10632000F7D1156030BC704730B4044654E8000F14
:1063300080EA010544E80053002BF7D1156030BC1A
:10634000704730B4044654E8000F00EB010544E800
:106350000053002BF7D1156030BC704730B40446B1
:1063600054E8000FA0EB010544E80053002BF7D1DF
:10637000156030BC704770B404464FF0000054E81C
:10638000006F0D68AE4207BF44E80023012044E8D7
:1063900000630E60002B1CBF0020F0E770BC70474C
:1063A00030B4044654E8000F88422CBF451A054615
:1063B00044E80053002BF5D1156030BC7047000055
:1063C0000648804706480047FEE7FEE7FEE7FEE78F
:1063D000FEE7FEE7FEE7FEE7FEE7FEE71D680200D8
:1063E000016202002DE9F05F0546002092469B46BF
:1063F00088460646814640241BE0284641464746DB
:10640000224600F067F853465A46C01A914110D30D
:1064100011461846224600F016F82D1A67EB0108BF
:106420004F4622460120002100F00DF817EB00092D
:106430004E41201EA4F10104DFDC484631462A46C5
:106440004346BDE8F09F202A04DB203A00FA02F11F
:10645000002070479140C2F1200320FA03F3194352
:10646000904070470048704750CA020040EA01035C
:106470009B0703D009E008C9121F08C0042AFAD2FA
:1064800003E011F8013B00F8013B521EF9D27047BE
:10649000D2B201E000F8012B491EFBD27047002266
:1064A000F6E710B513460A4604461946FFF7F0FF13
:1064B000204610BD421C10F8011B0029FBD1801A98
:1064C0007047034611F8012B00F8012B002AF9D17F
:1064D00018467047202A04DB203A21FA02F00021F6
:1064E000704721FA02F3D040C2F1200291400843E4
:1064F00019467047064C074D06E0E06840F001037E
:1065000094E8070098471034AC42F6D3FFF77CFEBE
:1065100060D2020080D2020070B58C1810F8015BC6
:1065200015F0070301D110F8013B2A1106D110F82C
:10653000012B03E010F8016B01F8016B5B1EF9D130
:106540002B0705D40023521E0DD401F8013BFAE7B6
:1065500010F8013BCB1A921C03E013F8015B01F821
:10656000015B521EF9D5A142D8D3002070BD0000B6
:106570002DE9F04700268AB0DFF85091B0464FF47D
:106580008075012437460696284603F057FB38B13C
:10659000D9F80403204203D0284603F045FB2643E4
:1065A0002D1D64007F1CADB2082FEDD34FF4BE74D7
:1065B000204603F043FB48B1204603F035FB46F08C
:1065C000004606AA0121002003F01AFB404D16F0F8
:1065D000FF0F15D00127002437420DD009EB8401AD
:1065E000D1F81005D1F81015C0F3042055F8242077
:1065F000C1F3014102B190477F00641C082CEBD32A
:10660000002E5FDA4FF0FF30CDF8108054E02819EB
:1066100010F8507F90F9000027F0C008401C3BD0D4
:1066200007A9404602F0DEFE10B34FEA9719404634
:1066300001F02AFF55F820701FB1B9F1030F03D004
:1066400006E0B9F1030F27D104A9404602F0D2FEBB
:106650004FF0A04101EB8800D0F8000706A9C0F375
:10666000014A404602F0BEFE18B1BAF1020F03D053
:1066700012E0BAF1030F0FD1B9F1030F08D1BAF14B
:10668000020F1DD00221404603F09EFA761CF6B29E
:1066900017B149464046B847641C042CB7D3002EB6
:1066A00010D06A460121002003F0AAFA069900984A
:1066B000884207D006900498002634460790A6E743
:1066C0000321E0E70AB0BDE8F08700000060004069
:1066D0003C31002000F01F02012191404009800060
:1066E00000F1E020C0F88012704700F01F02012185
:1066F00091404009800000F1E020C0F8001170478F
:1067000000F01F02012191404009800000F1E020CB
:10671000C0F8001270474907090E002806DA00F099
:106720000F0000F1E02080F8141D704700F1E02018
:1067300080F800147047000070B54FF48076304642
:1067400002F0A0FF114CB50560B1304602F0A1FF88
:106750000120C5F80803607920B901206071216823
:10676000002088474FF48276304602F08BFF0028E5
:106770000AD0304602F08DFF0220C5F808032168D8
:10678000BDE870400120084770BD0000F82A0020D5
:1067900007480021C0F84011C0F84411C0F8481162
:1067A000C0F84C11C0F80011C0F8041105F09ABBF4
:1067B0000010014000F0C6B970B50E46144900EB58
:1067C000400001EBC0051446E86A183520B10128E5
:1067D0000FD0022805D113E0284600F0E7F9A042C7
:1067E00001D2002411E022463146284600F016FA74
:1067F0000BE0284600F0DAF9A042F4D20446F2E7B2
:106800003146284600F0DDF90446204670BD000000
:106810001039002005F0B4BA03F0F2BFF0B5B54866
:106820000023021D0178101D01254FF08054062918
:106830000BD11678360708D10678C6F30316032E57
:1068400006D0042E04D0052E02D0062907D00EE073
:10685000B4F82463A84FC6F304263E6002E016781D
:10686000360704D10678C6F30316032E02D0062994
:1068700004D00FE0A24FA14E7E670EE016783607D7
:1068800008D10678C6F30316032E06D0042E04D0D2
:10689000052E02D0062907D00EE0D4F84462994FA5
:1068A000C6F342363E6002E01678360704D1067819
:1068B000C6F30316032E02D0062906D011E0924E2D
:1068C000376827F0807737600EE01678360708D1F2
:1068D0000678C6F30316032E06D0042E04D0052E28
:1068E00002D006290AD011E04FF08046C6F80C31DC
:1068F000C6F81031834E361F336002E01678360733
:1069000004D10678C6F30316032E02D0062905D05B
:106910000CE07C4F032664373E600AE016783607A9
:1069200004D10678C6F30316032E02D006290DD033
:1069300014E0764F05263E60744E78363560734E0F
:10694000083633603F263F1D3E6002E0167836076A
:1069500004D10678C6F30316052E02D0062957D0B7
:1069600062E06B4E36686B4F3E60694E361D36688E
:106970003F1D3E60664E083636683F1D3E60644EE1
:106980000C3636683F1D3E60614E103636683F1D3E
:106990003E605F4E143636683F1D3E605C4E1836D2
:1069A00036685C4F20373E60594E1C3636683F1DB6
:1069B0003E60574E203636683F1D3E60544E2436AA
:1069C00036683F1D3E60524E283636683F1D3E6099
:1069D0004F4E2C3636683F1D3E604D4E3036366881
:1069E0004C4F40373E604A4E343636683F1D3E605D
:1069F000474E383636683F1D3E60454E3C36366859
:106A00003F1D3E60424E403636683F1D3E6002E00C
:106A10001678360708D10678C6F30316032E06D07B
:106A2000042E04D0052E02D0062907D019E0D4F890
:106A30005812394A01F04F01116002E0117809073C
:106A40000FD10078C0F30310032803D0042801D02D
:106A5000052806D131480168C90702D06FF001014D
:106A60000160D4F83001062808D1D4F83401062892
:106A700004D12B48016841F48061016022487438D8
:106A8000016841F470010160BFF34F8FBFF36F8F56
:106A90004FF01021D1F80002002803DBD1F80402E6
:106AA000002822DA1F4A15601F480468002CFCD019
:106AB0001524C1F800420568002DFCD0C1F804423D
:106AC00001680029FCD0136001680029FCD0BFF3E5
:106AD0004F8F0D48F0380168144A01F4E06111430A
:106AE0000160BFF34F8F00BFFDE7124910480860F7
:106AF000F0BD0000E00F00F0403501400DF0ADBAF0
:106B000000C007403C050040FCED00E0105600408E
:106B10000404001020C50040E40E004000040040C2
:106B20003C17004004E5014000E401400400FA0580
:106B30000090D003E42B00200148006800470000CB
:106B4000002B002010B5124C02202061606111A0C2
:106B5000A06104F17800E0614FF400702062002031
:106B6000A06260620BA1A164E06204F51E71E164A1
:106B70001021A065C4E91410E06509A1E01DFFF72C
:106B8000A0FC08A12046FFF79CFC2020A07110BDAE
:106B9000103900205465726D696E616C0000000050
:106BA0005254540053454747455200000269C1689A
:106BB0008A4203D88068401A104400E0501A401EF0
:106BC00070472DE9F047C4681746894606464FF0DE
:106BD00000083069A04201D9051B02E0B168201A03
:106BE0000D1AB0686D1E001BA84200D80546BD42B4
:106BF00000D33D4670682A4620444946FFF736FCDC
:106C0000B0687F1B2C44A844A944A04200D10024B2
:106C1000F460002FDDD14046BDE8F0872DE9F0415A
:106C200004468846D4E90207C51BE1686068164639
:106C30000844B54206D94146FFF718FCB819E06090
:106C4000BDE8F0812A464146FFF710FC761B08EBB1
:106C5000050132466068FFF709FCE660F0E70000D6
:106C6000014A024900F031B82B8902007C2B002038
:106C700002E008C8121F08C1002AFAD17047704705
:106C8000002001E001C1121F002AFBD17047000063
:106C90000121202803DA81400548014003E0402813
:106CA00002DA2038814009B1012070470020704786
:106CB000FC06FFBD082806D228B1012803D004280D
:106CC00001D001207047002070472DE9F0411646A1
:106CD0000F460446002503E03946B047641C6D1C8E
:106CE00020780028F8D12846BDE8F08110B50122AF
:106CF0000221002001F0D8F908B1072810D107229D
:106D00000221012001F0D0F908B1072808D10021A3
:106D10000A22084601F0C8F908B1072800D100206E
:106D200010BD022001F0CAB870B50024064D06E07F
:106D30006868012110F8340003F04CFE641C2878C8
:106D40008442F5D3002070BD082B0020F8B515460D
:106D50000C460646052A01D20720F8BD03F036FF8F
:106D600018B903F0FBFE0028F7D1124900224E604B
:106D70000C708D60C1E90422C1E906220E4D0DE0C0
:106D800006EBC4002968009181788DF80110007825
:106D90000A4A694603F070FE0028DED1641EE4B2A0
:106DA000EED2BDE8F84004480021054A001D00F07D
:106DB0007BB80000082B002058C70200AD8A0200F3
:106DC0009D87020072B603F01DFA00BF03F000F8C1
:106DD0000028FBD1104C0121208801EB00400FA1BD
:106DE00003F05AF910480068C00700D000BE2088A0
:106DF000022101EB00400DA103F04EF9BFF34F8FCC
:106E00000948E43801680D4A01F4E061114301606A
:106E1000BFF34F8F00BFFDE7182C0020466174615F
:106E20006C206572726F7200F0ED00E0537973743C
:106E3000656D207265736574000000000400FA053A
:106E40000EB500210091CDE901106A4644F201001F
:106E5000FFF7B8FF0EBD10B58268C368934203D038
:106E600001F03CFD002010BD052010BD29B112B17C
:106E7000531E134203D0092070470E207047016053
:106E8000838000218160C1600846704710B5826828
:106E9000C3689A1A83889A4203D801F029FD00201A
:106EA00010BD042010BD0000084B9B7823B12AB10F
:106EB00020B10068037C1BB1082070470720704791
:106EC0000023037441744261184670470832002061
:106ED00070B504F011FD104800240B2104704470BB
:106EE0000E4D817014206C602C706C70FFF7F2FBFB
:106EF00007211420FFF70FFC1420FFF7F6FB0848CA
:106F0000046007211120FFF706FC0548001F0068F8
:106F1000A860002070BD000008320020282B00204F
:106F2000081501402DE9FC47DFF8789099F8023008
:106F300073B368B3052902D20720BDE8FC87436913
:106F400033B3437C012B25D0002704460025884617
:106F500016468DF80050684600F0CEF801A805F0FE
:106F60001FFBC8B1012101700F4944600968C0E9E5
:106F70000218C0E904769DF8040089F801009DF824
:106F8000000000F0DDF81420FFF7BAFB2846D4E734
:106F90000820D2E70F46D8E704259DF8000000F04E
:106FA000CFF8F3E70832002004150140064989783C
:106FB00039B130B1416921B100210174022104F0DD
:106FC0006DBF0820704700000832002070B50A4EDF
:106FD00001460A48B578FFF73EFF04464DB1002050
:106FE000B070711C0122C81D02F0C4FB08B1FFF78C
:106FF00027FF204670BD00003C2B002014330020EA
:10700000F0B5244E89B01F460D00044672603FD093
:10701000A888296882B22048FFF728FF002835D1C8
:10702000A889A96882B21C481030FFF71FFF00280A
:107030002CD1202219496846FFF718FA606906909A
:10704000207C00B101208DF814008DF81C70607C4C
:1070500000B10E208DF81500E0680290A068039042
:1070600020680190606800900A480D4A694608301F
:1070700002F04CFB002809D1B0702068401C05D0FC
:1070800004490122491CC81D02F074FB09B0F0BD7F
:107090000720FBE73C2B00201433002068C70200C8
:1070A00021C1020010B501461048FFF7EFFE0400B1
:1070B00019D10F480F4A0178515C19B1001D04F035
:1070C00007F802E00C3003F0EBFE60B9084907480E
:1070D0000839FFF7C0FE30B90549012208390448D4
:1070E00002F058FB0446204610BD00002433002067
:1070F000442B0020EC2A002030B5EFF3108172B64B
:107100000D4A9468012324B10370002900D162B6AE
:1071100030BD93604FF0E023D3F88051074C2540F9
:107120001560C3F88041D3F8844154605A17C3F8FE
:10713000842100220270E8E734330020FC06FFBD02
:107140000B498A68002A11D000280FD1EFF3108074
:1071500072B60B684FF0E022C2F800314B68C2F8FB
:10716000043100228A60002800D162B67047000016
:10717000343300202DE9F041064608680C46411CD6
:107180004FF0A0474FF0010506D005FA00F1C7F80F
:107190000815206802F004FD6068411C02D000213F
:1071A00002F0ECFC3168A069C1F82405607D227D05
:1071B00031681043C1F86C05D4E900123068C0F89A
:1071C0001425C0F80C15207D012815D1A068411C9C
:1071D00002D0002102F0D2FCE068411C05D08540BD
:1071E000C7F80855E06802F0DBFCD4E90212306809
:1071F000C0F80825C0F81015BDE8F0812DE9F04170
:10720000064608680C46411C4FF0A0474FF00105A8
:1072100006D005FA00F1C7F80815206802F0CAFC8C
:107220006068411C02D0002102F0B1FC3168A06905
:10723000C1F82405607D217D32680843C2F86C05E1
:10724000D4E900123068C0F80C15C0F81425207D70
:10725000012815D1A068411C02D0002102F097FC42
:10726000E068411C05D08540C7F80855E06802F089
:10727000A1FCD4E902123068C0F80825C0F8101546
:10728000BDE8F08170B51500044609D000202860E3
:1072900034B1206820B1A079800703D0072070BDE9
:1072A0000E2070BD084600F037FBC0B2142804D091
:1072B0002179814203D8042070BD052070BDE28889
:1072C000216800FB02102860002070BD2DE9FC47FA
:1072D000002517880646158090F82D00144689462B
:1072E00030B13A462146484600F02AFB051E09D136
:1072F000B0784FF00C0A18B32088C846001DB84279
:1073000002D95046BDE8FC87684679DF0028F9D1EC
:107310002088032108F8001020881921401C80B221
:10732000208008F800102088401C80B2208000EBEC
:107330000801BDF8000005F081F82188084420808C
:10734000F0780222C8B1218896F9033001F1030CCC
:107350004846BC45D5D8425421884FF0010C491C01
:1073600089B2218000F801C02188491C89B221809E
:1073700009F801302088401C20807068B8B121884D
:1073800090F9003001F1030C4846BC45B9D842548D
:1073900021880A22491C89B2218042542188491C33
:1073A00089B2218009F801302088401C2080308972
:1073B00050B1CDE900474B460622022106F10800F4
:1073C00005F006F9051E9DD1308A50B1CDE9004780
:1073D0004B460722032106F1100005F0F9F8051EBF
:1073E00090D1308B50B1CDE900474B461522142186
:1073F00006F1180005F0ECF8051E83D1306A30B1B3
:107400003B462246494601F0DEF8051EDBD1706A94
:1074100030B13B462246494601F060FE051ED2D1FE
:1074200096F82C0038B13B4622464946304604F0D7
:10743000B9FB051EC7D1307838B13B4622464946D4
:10744000304601F0D1FE051EBDD128465AE718B5D9
:1074500004460020ADF8000013466A46204600F0BE
:1074600006F8002802D0BDF80000204418BD70B511
:1074700088B182B10024158803E0065D641C3444A1
:10748000A4B2A54203D8061976789E4201D08C4258
:10749000F3D38C4201D3002070BDA11C1180005D8C
:1074A000401E80B270BD80F8301070472DE9F04169
:1074B0000D00044606D02CB195F87A00002601286C
:1074C00003D006E00E20BDE8F08195F89800012871
:1074D00029D0D5F8A000042825D0D5F89C00042890
:1074E00021D04FF00108A6702C2205F17801201D53
:1074F000FEF7BCFF84F83060D5F8A4006063D5F8CF
:10750000A800A0634FF6FF70A4F8A80004F194004F
:10751000C4F8A400C4F8AA60A4F8AE6084F8B0600F
:10752000207810B104E00720CDE7FF2084F8540054
:1075300004F155011F27C4F89410A4F8987004F1C1
:1075400098022846FFF7C2FE0028BCD115F13C0F77
:107550000ED004F17401C4F89C10A4F8A07004F1DA
:10756000A00205F13C00FFF7B1FE0028ABD103E01B
:10757000C4F89C60A4F8A06084F85180208BA4F823
:10758000480084F83C80266484F850606069606438
:10759000454604F13C02002104F1540072DF00284A
:1075A00091D125708FE710B50288102A1BD0112ABF
:1075B00020D0262A1DD1007A0C46012801D00228AD
:1075C00017D1A0780521401CB0FBF1F201FB12019C
:1075D000204600F052F800280BD0A16B002908D0FB
:1075E000BDE810400847C27B012A02D18088A1F87B
:1075F000A80010BD0C46002184F8B2108088B4F8B1
:10760000A8108842F5D120790028F2D10121DFE7C6
:1076100010B50C46022801D0032810D1607800284C
:107620000DD000206070A178204600F026F80028D8
:1076300005D0A16B002902D0BDE81040084710BD5D
:1076400010B5044690F8540074DF012084F8B200AD
:10765000002084F8B40084F850000621204601F090
:1076600050F9002808D1A178204600F006F810B1A2
:10767000A16B01B18847002010BD2DE9F05F0446E1
:1076800000780F4638B1A770002002F099F9012662
:1076900020B1667007E10820BDE8F09F0025C4F81E
:1076A000AA50A4F8AE5084F8B050A07910B1A078D8
:1076B000012806D0E07968B1A078012801D002281D
:1076C00008D1616B21B184F8B1600820884701E0DE
:1076D00084F8B15004F1AB0100200A5C0AB13046D5
:1076E00003E0401C0628F8D300204FF002084FF0BA
:1076F000030B012F06D0022F0CD0032F0FD0042F25
:1077000015D110E0A17929B194F8241011B908B16C
:1077100030460DE0E17911B108B1404608E0207A29
:1077200008B1584604E0607A08B1042000E0284619
:10773000A070616B41B1032801D0042804D16079A5
:1077400010B194F8B200A0B184F8B35004F13C0039
:1077500018210746FEF7A3FE04F12C0084F83C60D4
:10776000814603F0D7FF58B194F82C0084F85100FB
:1077700008E084F8B45084F8B36007208847E5E750
:1077800084F8516094F8240050B1484603F0C2FFD9
:1077900020B194F8280084F8520001E084F8526087
:1077A00084F85050A27804F1AA0104F194094FF032
:1077B000060A052A60D2DFE802F078030F223F00B4
:1077C00084F83160C4F8A450C4E9101584F83C80F2
:1077D0008020A4F8480051E084F8318094F82420F7
:1077E000384612B10722027001E080F800B0228A08
:1077F0008281C4F8A4504160E168B9603EE06069EC
:10780000B860208BB88194F824003D4610B184F80C
:107810003CA001E084F83C60204604F0A3FE40B1A7
:1078200085F814800421204601F06BF820BB052167
:107830001EE084F831B01DE0E069B860208CB881AA
:1078400094F824003D4610B184F83CA001E084F88F
:107850003C60204604F086FE48B185F8148004217F
:10786000204601F04EF838B984F831A002E0042136
:1078700084F83110C4F8A490A07878B13A4604F1A5
:107880005400D4F8A41072DF00287FF405AF94F8F8
:10789000301094F8540073DF0028F6D1616B11B1F9
:1078A00094F8310088470020F6E684F83150F5E777
:1078B00070B5040012D001461C221448FEF7D6FD14
:1078C0001248134D0560206850B17ADF002806D1B8
:1078D0002068016829604068686005E00E2070BD7E
:1078E0000B487BDF0028FAD108484FF6FF711438A7
:1078F000084A20F8041B0549343901600021FFF7CC
:10790000D3FA0028EBD0032070BD00009430002093
:10791000E42A0020FDC4020010B5044600F006F879
:1079200008B1204610BD142010BD0000142801D35A
:10793000002070470146014801F0C5BCB43000206A
:107940007CB5054608880C460930904201D90C20C8
:107950007CBD68466DDF0028FAD121880820685474
:1079600020881B21401C80B2208029542088401C84
:1079700080B220802844DDF801100160BDF80510B8
:1079800081802088801D80B220809DF800104908E9
:1079900000D0012129542088401C208000207CBD7B
:1079A000F8B5044601882C482C4D212900886E88A2
:1079B00037D011DC284A4FF003001029128800EB61
:1079C000024013D0112925D0132929D100231A46AA
:1079D000852130467FDF17E03B2938D0522930D04F
:1079E00056291DD1A088132176DF0DE01CA102F0DD
:1079F00053FB072000F07AFB08B1FFF721FAA188BA
:107A000069801A4801F0C6FD002809D0BDE8F84099
:107A1000FFF716BA16A102F03FFB4FF6FF70688021
:107A2000F8BD042101EB004015A102F035FB002058
:107A30000090A08869468FDF0028F1D0FFF700FA98
:107A4000F8BD00231A4619463046B1DFDCE7A088AE
:107A5000132176DFD8E70000182C0020A02A002090
:107A6000436F6E6E6563746564000000302F002004
:107A7000446973636F6E6E65637465640000000033
:107A80005048592075706461746520726571756520
:107A900073742E0010B51A4C0188606810290ED03E
:107AA00011292BD1401E606028D1FFF71FF9002853
:107AB00024D02168002921D0BDE810400847D0B962
:107AC00000210122084600F0EFFA08B107280FD183
:107AD00007220221012000F0E7FA08B1072807D1A8
:107AE00004220221002000F0DFFA20B1072802D092
:107AF000216801B188476068401C606010BD0000CB
:107B0000DC2A00202DE9F04701883B4E40F2F319B2
:107B10004FF6FF7510291BD011293ED0122954D0E1
:107B2000502946D1C188F289841D914241D1618991
:107B300002293ED18688304600F0FAFF050038D091
:107B400004F10C0000F076F9A8B3294630464EE067
:107B5000C17B8788044601292BD1A846284600F01E
:107B6000E7FF050017D02F800020287223484346E6
:107B70004A460168C5F80A104068C5F80E0004F1CD
:107B8000100105F10A0001F097F86872F0890028E9
:107B90000FD129462AE0042013E0808800F0C8FFB6
:107BA000040006D06068FFF701FA08B103F0CAFFCD
:107BB0002580BDE8F087FFE76868FFF7F7F9002840
:107BC000F7D0BDE8F04703F0BDBF878806463846CA
:107BD00000F0AEFF0400ECD02B464A4606F1080147
:107BE00004F10A0001F068F8607221463846BDE8E9
:107BF000F04700F02FBD000094300020E42A002060
:107C00002DE9F04F0746858802883D48012197B04D
:107C10008346102A09D0112A49D01A2A6CD1387A01
:107C2000B1EB101F45D2012244E0354C083CA0685E
:107C3000C0430B9061680BA801F066FB0B990CA880
:107C400000F0A2FC2C220CA96846FEF70FFC0026CF
:107C5000E946A04610E000BF09EB46005FF00004D3
:107C6000B0F804A008EB84005146001D01F020FB91
:107C7000641C1D2CF6D3761C0098B042ECD8142D51
:107C800005D317B00420BDE8F04FFFF7D9B8294657
:107C9000584601F023FB294608F1040001F01EFBC1
:107CA000F87B012828D016482946001D15E02946F2
:107CB0001AE000220221B1EB101F01D2012600E0E0
:107CC00000260F49083901F11000041D294682B130
:107CD00001F004FB36B12946204617B0BDE8F04F4D
:107CE00001F0FCBA2946204617B0BDE8F04F01F07C
:107CF000DFBA01F0DDFAF5E717B0BDE8F08F00005C
:107D0000B8300020F0B585B016460F4604001D4679
:107D100014D004AA19466069FFF7B4FA00280BD101
:107D2000A5F57F40FF380BD0049848B1007848B1E2
:107D30003088F42808D9072005B0F0BD0E20FBE7F5
:107D40000520F9E70820F7E7002000900190029055
:107D50000390A088ADF8000001208DF80200CDE965
:107D6000026769462846AEDFE6E7000030B5144BEF
:107D70000D4604000FCB85B08DE80F001ED0EDB18D
:107D80002868A0612146684662DF002814D1207867
:107D90008DF812000120ADF81000A21C04A9A8DF84
:107DA000002809D12946204603F0DDFD002803D133
:107DB0002946204604F0E0F805B030BD0E20FBE770
:107DC0003CC7020070B588B00446002924D0002CBE
:107DD00022D008462188102920D0502924D05729A4
:107DE0001AD10546A188406906AAFFF74BFA002878
:107DF00012D1069E307800280ED018216846FEF772
:107E00004EFB01208DF800000195A088ADF8080018
:107E10000396A9696846884708B070BD08B0214636
:107E2000BDE8704003F0F2B908B02146BDE87040EB
:107E300003F02EBC007800F0010070470149085C97
:107E400070470000F4C602000649095C4FF0A040EC
:107E5000D0F81005C84010F0010000D0012080F0DB
:107E600001007047F4C602002DE9FC410646C00738
:107E70004FF000050ED0104F00240122385D009510
:107E800000231146019501F031FE641C042CF4D34B
:107E900000F046F8B0070DD5074E0024361D00222D
:107EA000305D032300951146019501F01FFE641C0F
:107EB000042CF4D3BDE8FC81F0C6020007490B5C3A
:107EC0004FF0A041D1F804250120984020EA020398
:107ED000C1F808351040C1F80C057047F0C6020023
:107EE0000249085C012101F080BE0000F0C60200DA
:107EF0000249085C002101F078BE0000F0C60200D3
:107F00000649095C4FF0A040D0F80405C84010F0C5
:107F1000010000D0012080F001007047F0C602008F
:107F200010B500242046FFF7DBFF641C042CF9D3B6
:107F300010BD10B500242046FFF7DAFF641C042CA6
:107F4000F9D310BD10B50246064B4FF0FF300021AB
:107F50005C5C944201D1084610BD491C0429F7D34A
:107F600010BD0000F4C6020070B50C4E0C004FF0BE
:107F7000000530600BD0012000F06AF808B1022043
:107F800004E0002000F064F800B10B20207070685D
:107F900010B9FEF7ABFE0546284670BDDC2A00206E
:107FA00010B5002000F0D4F908B1062806D1012050
:107FB00000F0CEF908B1062800D1002010BD000065
:107FC0002DE9F0470D468146FFF7BCFF0446042823
:107FD00036D2DFF874801B481C4EA8F10C0725B37D
:107FE000012D0ED0022D2BD104EB440030444578F6
:107FF000002D25D0B968002922D02846BDE8F047D9
:10800000084704EB4401755C0E44717849B10E4A8F
:108010004FF40041093A8068FEF784FF08B987F8F9
:108020000390B17808F80410E2E78068FEF7BEFF1D
:1080300004EB4401314418F804008D78A842D7D0ED
:10804000BDE8F087F8C60200D82A002034300020AE
:10805000042801D2FFF7F8BE0020704701461048FF
:1080600010B54088042907D007290ED00A2915D158
:10807000BDE8104003F0DABD132176DF0CE00028E4
:108080000CD0BDE81040FEF7DBBEA0F57F41FF3904
:1080900004D10448FFF7D4FA0828F0D110BD00003D
:1080A000A02A00203C2F002070B50023042810D205
:1080B0000D4D00EB4004012A02D101290CD0002211
:1080C000094E00EB4000304461B1012906D002297D
:1080D00006D00723184670BD0E30C2B22A55F9E704
:1080E0004270F7E78270F5E734300020044A014619
:1080F00000201279D20702D0084600F04DB8704730
:10810000CC2A002070B506461E480024C0E9016153
:10811000B00720D50025012211462846FFF7C4FFED
:108120006D1C0446042D02D2002CF4D013E094B947
:1081300040F2666204211448FEF708FE04000AD1EA
:10814000FEF7F2FD040006D10F48104A0021001F7F
:10815000FEF7AAFE0446F00712D00120FFF784FEC6
:1081600074B909480A4A00210C38FEF79DFE040044
:1081700006D10548074A01210838FEF795FE044656
:10818000204670BDCC2A002004C702001D840200D6
:108190002D8D0200236D02002DE9F05F6A4C05462B
:1081A00000266078B34618B184F801B000F0A6FD4F
:1081B000664F4FF47A694FF4C87A4FF00108182DD2
:1081C00062D2DFE805F0AC0C0C31404D62676B7495
:1081D0006B74BE7D7D7D7D7DACAFB2B5BEBE002033
:1081E000FFF78EFE00284FF0000008D0FFF778FE62
:1081F000022D02D14FF4E16008E0484606E0FFF7A7
:1082000077FE022D01D1C82000E05046410CC0038A
:108210004FF4FA72801841F10001257052000023DA
:10822000FEF7E0F801462AE00020FFF769FE00288B
:108230004FF0000004D0FFF753FE4FF44870E5E71D
:10824000FFF756FEDFE70020FFF75AFE00284FF049
:10825000000002D0FFF744FECFE7FFF749FED4E766
:108260000020FFF74DFE00284FF0000002D0FFF77E
:1082700037FE01E0FFF73CFE257041F69A1100221F
:108280003868FEF74FFE064646E00020FFF716FE70
:10829000257008E0002051E025703DE084F8018061
:1082A0000120FFF70BFE002240F6CD41E8E784F8FD
:1082B00001800120FFF702FE00224FF48041DFE73A
:1082C0007868FEF773FE0646D5F1110000D02EB196
:1082D0000220FFF705FE84F802B01DE0012816D940
:1082E00080B2C8214843C117C90341EA5041C003C5
:1082F0004FF4FA72801841F1000152000023FEF79A
:1083000071F8014600227868FEF70CFE064602204E
:10831000FFF7EEFD84F802803046BDE8F09F00F0E4
:10832000EDFCB9E700F0EAFCB4E700F0E7FC04E09C
:1083300000F0E4FC0020FFF7DBFD0120FFF7D8FD93
:10834000AAE7FFF7F6FDA7E7CC2A0020F8C602004F
:10835000012104F0A4B900002DE9F8430546861C6C
:1083600000208DF8000090460F464FF00109684646
:10837000FEF7C2FE1B4C20683860D4E90001401AA9
:10838000A16804F21C47081A0EE00121384600F0EB
:10839000B5FF00F05DFD0146384600F0AFFFD4E9BF
:1083A0000001401AA168081A401C8642EDD8B8F1B5
:1083B000000F03D0052065F3891002E0062065F365
:1083C0009F50A2682168114004EB8101C8602068B9
:1083D000304420609DF80000FEF7B2FE4846BDE83C
:1083E000F8830000EC34002030B482680468531C29
:1083F0008360A154D0E901128A4202D330BC01F05B
:10840000E6B930BC70470000034803C8814201D17F
:108410000120704700207047EC34002000780221D2
:10842000FFF7CEBD05494FF0FF32082841F8202064
:1084300002D3084480F84820704700003C310020F7
:10844000F0B54FF0FF3512B10023082601E00823F4
:108450000C260C4C05E000BF54F823707F1C04D0A0
:108460005B1CB342F8D32846F0BD26185DB286F8EF
:10847000305044F82310002AF5D1E11881F8480063
:10848000F1E700003C3100200249084490F9300037
:10849000704700003C31002070B5084C050009D041
:1084A00010342168002907D00868206049682846F0
:1084B0008847F6E70834F4E770BD00002831002053
:1084C000054A012120B1012805D19170FFF7E4BFD1
:1084D00051700020FAE77047283100202DE9F05F45
:1084E00026484168F1B3DFF898B00E688146DBF8A2
:1084F000004087688078E11B21F07F45ED1CB0B912
:10850000DFF880804FF48030C8F84403C8F80403D3
:108510001120FEF7DFF81120FEF7E7F84FF0010A0F
:10852000C8F800A02F2002F04DFA89F802A0B54249
:1085300000D23546124BE8193C3320F07F401860DA
:10854000DBF800105A46091B21F07F41001B20F088
:108550007F40C91C81420FD9106818602F2002F09B
:1085600031FA00E004E0BDE8F05F1120FEF7C8B882
:10857000BDE8F05F03F0C0B9BDE8F09F282B0020F4
:10858000041501400010014073B58CB00646002070
:1085900000900D9880B100246D4621460DA800F092
:1085A00092FE30B1009805EB400084800098401C9A
:1085B0000090641C142CF0D32C2269463046FDF741
:1085C00055FF0EB070BD2DE9F04117880646B81D65
:1085D00014460D46984202D90C20BDE8F08131883E
:1085E000072206290AD34FF4486C4FF6FF73614502
:1085F00001D9994202D17088062801D21046ECE7D1
:10860000604501D99842F9D1994203D0984201D0EE
:108610008142F3D80520E85520881221401C80B201
:10862000208029542088401C80B220804119308845
:1086300003F004FF2188084480B22080411970882B
:1086400003F0FCFE2188084420800020C5E7FEF7E7
:10865000F7BB000038B54A7A0F4B62B100220A72AC
:108660005969002906D001228DF80020ADF80200DA
:108670006846884738BD0A7A62B19B684C680246F2
:1086800019462046FEF74EFC0028F3D0BDE83840DE
:1086900003F058BA5B68F1E794300020F0B5204C45
:1086A0000D4606462088042101EB004087B0334682
:1086B0002A461CA101F0FBFC002004900590ADF8B7
:1086C000105001900290ADF8125001AA04A9304652
:1086D00090DF070021D002F01BF903462088012516
:1086E00005EB004032461B4901F0E1FCBDF80420D7
:1086F00012B9BDF8060038B12088BDF8063005EB88
:10870000004015A101F0D3FCBDF808202AB1208853
:10871000214905EB004001F0C3FC07B03846F0BD2D
:10872000E82B00205570646174696E672064617481
:1087300061206C656E67746820746F202575206FEA
:108740006E20636F6E6E656374696F6E203078257E
:10875000782E00009CCA020054686520726571750D
:1087600065737465642054582F5258207061636B90
:108770006574206C656E67746820697320746F6F10
:10878000206C6F6E672062792025752F2575206F0C
:1087900063746574732E0000E8CA02002DE9F04787
:1087A0000025DFF88C803CE06068002100EBC50606
:1087B000012032789146FDF746FED4E9062300EA0F
:1087C000020701EA030C57EA0C0728D082438B43C7
:1087D0004846C4E9062302F0B7F93278824691464A
:1087E00001200021FDF72FFED4E9042300EA020452
:1087F00001EA03074A4650460021FDF724FE4440A3
:108800004F403C430BD17078012801D0012100E09A
:108810000021726881EA0A010AB1484690476D1C3E
:10882000EDB298F8000044468542BDD3BDE8F0871C
:10883000082B002010B50021024800F070FD80F3E5
:10884000100010BD083900200E4910B50A784C7888
:108850000023A24212D0521CD2B20A70022A00D1C6
:108860000B70084A0B780C3252F82320026088689B
:10887000104420F07F408860012010BD036000207C
:1088800010BD0000282B002030B50446006887B0DA
:108890000D46806800281FD018216846FDF7FFFDAF
:1088A0000195A0680590207910B1012810D107E04A
:1088B00001208DF8000020690290E068039005E037
:1088C00002208DF80000E0680003029060690490C7
:1088D000206881686846884707B030BD8268838811
:1088E0001A4003689A5C0A708168491C816070476D
:1088F000C26883881A4003689954C168491CC160E2
:10890000704770B50D460446B0F89810D0F8940042
:108910000122FEF79CFD00B1057004F13C0204F158
:10892000940104F1540072DF70BD10B50446C0B26A
:10893000FEF7B8FB204610BD1FB503219DF80000CF
:1089400020F00F00401CC0B220F0F00010308DF875
:108950000000030900F00F021148008801EB0040FD
:1089600010A101F0A4FB0B2217A168467CDF08B11F
:10897000FEF766FA0020019002901021ADF8080081
:10898000ADF804104FF4C8703C21ADF80A00ADF802
:10899000061001A87ADF002801D0FEF751FA1FBDAA
:1089A000182C00207365635F6D6F64652E736D3DD9
:1089B000253032582C7365635F6D6F64652E6C765D
:1089C0003D253032580A00004E6F726469635F556E
:1089D0004152540070B5044610484A88104D4388EF
:1089E0009A4210D10A88A2F52063773B0BD189887F
:1089F000C91E8AB282802888032101EB00401346F9
:108A000008A101F054FB288823886288BDE87040E3
:108A1000042101EB00400AA101F049BBA02A00207B
:108A2000182C002044617461206C656E20697320ED
:108A300073657420746F20307825582825642900C8
:108A4000415454204D54552065786368616E6765C4
:108A500020636F6D706C657465642E2063656E7441
:108A600072616C2030782578207065726970686555
:108A700072616C20307825780000000010B509493B
:108A8000094800F0CDFC08B1FEF7DAF9F7210648F5
:108A900000F0BAFC002803D0BDE81040FEF7D0B9C2
:108AA00010BD0000D58902001C2F00202DE9F041E7
:108AB0008046024601200021FDF7C5FC1A4F0546FD
:108AC0000E467868FEF772FA00280CD1174CD4E9EC
:108AD000062110462A4001EA06031A4305D0A8439E
:108AE000B143C4E90601BDE8F081404602F02CF82C
:108AF00030B1D4E9040128433143C4E9040105E05D
:108B0000D4E90410A943B043C4E90410D4E9060130
:108B100028433143C4E90601A1687868BDE8F04103
:108B20000022FEF7FFB9000058C70200082B002002
:108B30000146034802888A4200D0002070470000A6
:108B4000803000202DE9FC5F0E008346DDE90C47F4
:108B5000C6F1000098469246814600D40846012599
:108B600003E000BF90FBFAF06D1C5045FADAA8450F
:108B700000D9454624B1002E01DB780700D5641EDC
:108B8000B80702D5B8F1000F0AD0F80708D13CB1F8
:108B9000A54205D220215846641EFFF725FCF6E7C2
:108BA000002E02DA4E462D2102E0780703D52B2154
:108BB0005846FFF719FC07F0030002280BD1B8F163
:108BC000000F08D13CB1A54205D230215846641EA1
:108BD000FFF70AFCF6E7CDE9004743465246314627
:108BE000584603F031FCBDE8FC9F000070B50D460F
:108BF000044600684FF4887101F0AAFE4FF49071AA
:108C0000206801F0A5FE4FF49271206801F0A0FEEB
:108C10004FF4A271206801F09BFE20681249C0F851
:108C2000041320686907000B40B2090E002806DA19
:108C300000F00F0000F1E02080F8141D03E000F1C7
:108C4000E02080F8001420680121000B40B200F001
:108C50001F0291404009800000F1E020C0F880121E
:108C6000C0F8001170BD0000100302000246002091
:108C70001268930702D0530702D47047500714D5E7
:108C800002F00300012802D002280CD105E0C2F353
:108C900083100B68801C184404E00223086803EB6F
:108CA00092521044086001207047086800EB92530C
:108CB000C2F38910401CEEE7F0B58488A5189442F1
:108CC00000D82246A41AC288D6189A4200D8134661
:108CD000D21A4B880788BB420CD34088834209D8FC
:108CE0008888A04206D3A84204D8C888904201D3FD
:108CF000B04201D90020F0BD0120F0BD0A4810B5F6
:108D0000807860B1002401E0022C06D02046FFF7F5
:108D1000E7F8641C042CF7D310BD0324F6E7BDE884
:108D20001040FFF7FDB80000CC2A0020034801796D
:108D3000C90702D00078FFF72FBA7047CC2A00206D
:108D4000F721018017214180002101714171FB2130
:108D500081711B21C17170472DE9F047394E002701
:108D600080463D46DFF8E090D6F804A057E003D0F7
:108D70000446D0F81C8035E099F8002002EB42014F
:108D8000521CD2B289F8002009EBC10199F80230D7
:108D9000091D9A4201D189F8005048680A780446B2
:108DA000012A12D0022A02D0032A3BD108E003F0A4
:108DB00045F800B10127257434E00574C06900E06E
:108DC00070680028F9D170602CE0207C50BB886866
:108DD0006060C868A0600869E0604869A061F078D8
:108DE00000B165606268B168184B501A20F07F408E
:108DF000984202D2A168084406E0881AA16820F0CF
:108E00007F40814202D9081A206000E02560656039
:108E10000120A56020742046E56102F0F1FFB8F161
:108E20000000A4D199F8001099F801008142A3D163
:108E300017B97168514502D00120BDE8F0870020C4
:108E4000FBE70000282B002008320020FFFF7F00F6
:108E50002DE9FF410026234800F04DFA2148001F6C
:108E6000074600F048FA204C60680090A56800E0D2
:108E700000986946284004EB80000C30FFF7F6FEAE
:108E80000028F5D101AA009901EA050304EB830348
:108E9000491CDB6842F82030401C00910228F2D3C4
:108EA000019800F0030001280BD0022810D101988E
:108EB000032101EB90500099BDF80A6001EB90008E
:108EC00005E00198BDF80A60C0F3831008440090E3
:108ED000384600F00DFA08B10098606004B03046E2
:108EE000BDE8F08104390020EC340020ACB0182239
:108EF0005D496846FDF7BAFA5C4806905C494FF454
:108F00008070CDE90701099007235A4A06A96846EF
:108F1000FEF776F808B1FDF793FF4FF4004100200B
:108F200001F02CF908B1FDF78BFF00F043FFFDF7CE
:108F3000CFFF08B1FDF784FF4F490320FFF7E2F8A8
:108F400008B1FDF77DFF69460020FFF70DF808B175
:108F5000FDF776FF01F030FA08B1FDF771FF01F07F
:108F600007FC08B1FDF76CFF00246946012000945E
:108F700001F064FA08B1FDF763FF684601F008FBF1
:108F800008B1FDF75DFFFFF7D7FCFFF777FD3B4822
:108F9000019001A93A4800F008FB08B1FDF750FF25
:108FA0003848009069463848FEF7E0FE08B1FDF702
:108FB00047FFAC216846FDF772FA02208DF80000E9
:108FC0008DF8024005208DF803000120ADF84C001B
:108FD0002D498DF87C004020891F2290149144F285
:108FE0005060239029482990254869460C30FEF7A7
:108FF0005DFA08B1FDF724FF214801210C30FEF78E
:1090000052FA1C216846FDF74AFA4FF42030CDE9A8
:1090100000404FF4702002901D48059003251D4824
:109020008DF80C500690ADF80E408DF81040684653
:10903000FEF73EFC08B1FDF703FF17A0FDF710FE99
:109040001A481BA1008805EB004001F025F80C48E8
:1090500003210C30FEF711FB08B1FDF7F1FE00F023
:10906000B7FE01F0BDF9FAE7D8C602001C2D0020BA
:109070001C2E00206DC002005D80020025A40200AD
:10908000302F0020EDB00200AC2A0020CDB102004C
:10909000F1B102004F8602000D0A5541525420736F
:1090A0007461727465642E0D0A000000182C002093
:1090B0004465627567206C6F6767696E6720666FCD
:1090C000722055415254206F7665722052545420BC
:1090D000737461727465642E0000000070B51446EC
:1090E00082880E4605462088111D0144921C994233
:1090F00001D8FE2A01D90C2070BD521C32542088A0
:10910000FF21401C80B2208031542088401C80B256
:1091100020808119288803F091F92188084480B2C1
:109120002080AA8842B1A96841B13044FDF79EF978
:109130002088A98808442080002070BD072070BDC9
:109140002DE9F047C7880446181D16468946B0FB2E
:10915000F7F1B0FBF7F207FB12009A193A44D21C60
:10916000B2FBF7F2DDF820A001E02468491E0029D7
:10917000FBD13D1A8846B54216D818E0BAF1000F67
:1091800005D0211809EB08002A46091D04E02044F7
:1091900009EB08012A46001DFDF768F90020246844
:1091A000761BA844B74201D9354600E03D46002E63
:1091B000E4D1BDE8F087000030B5024659B101F0B6
:1091C00009F80021074C09E004EB810315685B886E
:1091D000AB4202D11160002030BD491C8142F3D363
:1091E000052030BDE82B0020F8B50F460178144665
:1091F0000546012901D1687830B12088821C9A4245
:109200002DD8012902D006E00720F8BD6978014475
:10921000891C994223D8181A801E86B2ADF80060C6
:109220002188B81C084469467DDF0028EDD12878E4
:10923000022805D1BDF80010B14201D809210AE089
:109240000821012805D16878B04202D8ADF80000A5
:1092500001E0ADF80060BDF80000FE2801D90C2047
:10926000F8BD2288401CB8542088401C80B2208061
:1092700039542088401C2080BDF80010084420800C
:109280000020F8BD10B50A8849888A4203D1FDF74D
:1092900003F8012010BD002010BD70B50C46054636
:1092A000FCF7DDFF002802D061882868084470BD03
:1092B00001F01F0301229A40D243490900EB8100CB
:1092C000114600F021B84A0950F8220001F01F02AF
:1092D00001219140084000D00120704701F01F0398
:1092E00001229A40490900EB8100114600F01CB8A8
:1092F000002100F00FB8012100F016B808B56A4649
:10930000FDF71FF8009808BD08B56A46FCF7FFFF97
:10931000009808BD08B56A46FCF7F9FF08BD08B516
:109320006A46FCF7DBFF08BD08B56A46FCF7E2FFBA
:10933000009808BD08B56A46FDF710F8009808BD0A
:1093400038B5044600258DF800506846FDF7D4FE78
:1093500021686268086890420ED9401E0860017852
:10936000A38AE26801FB0325227A2168101AC0B2A1
:109370000A79824200D208719DF80000FDF7E0FEF4
:10938000284638BD38B5054600208DF800000C464B
:109390006846FDF7B1FEE868A98A201AB0FBF1F132
:1093A0002A681068431C136001709DF80000FDF7E7
:1093B000C7FE38BD10B530B1017A42680368891A1A
:1093C000C9B21A6006E00E2010BD03681A68541C6A
:1093D0001C601170491EC9B2F7D2006800210171EA
:1093E000084610BDC20800F007030120895C9840C0
:1093F0000840704710B5C20800F00703885C0124DC
:109400009C402043885410BD28B1A1F11702E12AE5
:1094100003D3072070470E2070470180002070475B
:1094200010B560B10161F72120F8021B20F8021B82
:10943000FB2100F8021BFFF783FC002010BD0E206B
:1094400010BD00002DE9F047B0F804900C465FEA2B
:1094500009025FD10188304E4FF0040A24291FD041
:1094600006DC102909D011290CD0232931D11CE0A8
:109470003A290BD055292CD10DE00146204601F0A8
:10948000FBFE26E0A01DFFF75BFC22E00146204624
:1094900002F0ACF81DE00146204601F0FFFF18E0A5
:1094A0000146204601F06AFF13E0057A3188071D66
:1094B0000AEB014004F106082B4618A100F0F7FD65
:1094C00098F80600A84200D2054629463888FFF7DA
:1094D000E5F8A07A00281DD0E1884846A5DF0125DF
:1094E00060B1112816D001F013FA024630881BA192
:1094F00005EB0040BDE8F04700F0D2BD0023A372A9
:10950000E5723188E2880AEB0140BDE8F047204966
:1095100000F0CDBDBDE8F087E82B002050656572F6
:10952000206F6E20636F6E6E656374696F6E20309E
:109530007825782072657175657374656420612083
:1095400064617461206C656E677468206F662025A5
:10955000752062797465732E0000000073645F6289
:109560006C655F67617474635F65786368616E677B
:10957000655F6D74755F72657175657374282920F8
:1095800072657475726E65642025732E000000008C
:1095900054CA020020B10278DE2A03D008207047A6
:1095A0000E20704741800020704760B159B10278A9
:1095B000DE2A0AD009684160DE2101704FF6FF7192
:1095C0004180002070470E207047082070477FB50B
:1095D000054600294DD0002D4BD008780C46DE28DA
:1095E00047D1A8886188884202D1204602F0C6FF90
:1095F0002888012825D002283BD011283AD05128AC
:1096000037D135F8040F6188884232D1A978A81C77
:1096100002292ED1017A042903D0062901D0052977
:1096200027D10021009102228DF8002001914FF4F2
:10963000C07202910391ADF80420007A05280FD082
:1096400010E0297A2046012913D1A9884288914245
:109650000FD10121017204B0BDE8704002F08EBF4D
:10966000ADF8041028886946B0DF002801D0616891
:1096700088477FBDA88861888842FAD14FF6FF707D
:1096800060807FBD00F180400068002800D001208C
:10969000704708B500F1804000210160006800902B
:1096A00008BD000070B50B4C207808B185250FE08F
:1096B0000020A06060602061E060074801F064F96C
:1096C000054601F0AFF808B901F048F90120207013
:1096D000284670BD28310020C184020038B500251D
:1096E0008DF800506846FDF707FD074CE068401E06
:1096F000E060E06810B901F057F9A5709DF800002E
:10970000FDF71EFD38BD000028310020F0B50546EC
:109710000478154889B0164640F82420124A086992
:10972000121DA2F1080742F82400487F3855202274
:109730006846FCF79BFE04942878385C48B10EB16B
:109740000A4A00E000226946281D01F0C1FB09B069
:10975000F0BD0EB1064A00E00022694605F10C009A
:1097600001F06CFAF3E70000F02A002019C30200B0
:10977000C1C1020030B40378054CE35C1BB130BCBE
:10978000001D01F0DBBB30BC0C3001F0C1BA0000A1
:10979000EC2A002030B40378054CE35C1BB130BCEC
:1097A000001D01F04DBC30BC0C3001F027BB0000A7
:1097B000EC2A00200FB408B50399002904D004AAAC
:1097C00000926A4600F00FF801B05DF814FB10B586
:1097D00082680446002A05D0D4E90403216898472A
:1097E0000020A06010BD2DE9FC4791460C0080468A
:1097F00076D014F8011B39B125290ED04046FEF76A
:10980000F3FD20780028F4D198F80C00002867D0E8
:109810004046BDE8FC47FFF7DABF0020012221786F
:109820002B291BD02D2902D0302908D102E040F08D
:10983000010001E040F00200641C002AEFD1002585
:109840002A290ED02178A1F130020A2A11D205EB83
:10985000850201EB4205641C303DF1E740F0040055
:10986000EAE7D9F800100B1DC9F800300968641C3C
:109870000D44217800232E290BD114F8011FA1F1EA
:1098800030020A2A05D203EB830201EB4203303B8C
:10989000F3E76C290DD068290BD0692921D00BDCA6
:1098A000252918D0582931D063290ED0642915D123
:1098B00017E014F8011FECE7702969D0732932D042
:1098C00075291BD0782909D120E0D9F80000011DA5
:1098D000C9F8001001784046FEF786FD641C90E749
:1098E0006CE0D9F800100A1DC9F800200968CDE91C
:1098F00000500A224046FFF725F9EFE7D9F800109B
:109900000A1DC9F8002009680A2206E0D9F80010EB
:109910000A1DC9F8002009681022CDE90050404610
:1099200002F092FDDAE7D9F8001000270A1DC9F805
:1099300000200E68C00705D112E04046761C7F1C4F
:10994000FEF752FD31780029F7D104E0202140468E
:109950006D1EFEF749FDBD42C0D9002DF6D1BDE711
:109960004EB13046FCF7A6FD074604E020214046F4
:109970006D1EFEF739FDBD4206D9002DF6D103E07C
:109980004046761CFEF730FD31780029F8D1A5E776
:10999000D9F80000011DC9F80010056830214046C3
:1099A000FEF722FD78214046FEF71EFD082000212B
:1099B000CDE90001034610222946B0E7BDE8FC8747
:1099C0002DE9F04128B1016819B1C969BDE8F0413C
:1099D00008470D4D0D480024461B14270DE000BF1D
:1099E00004EB840005EB8000016829B1C969884750
:1099F00010B10120BDE8F081641CB6FBF7F0A04275
:109A0000EED80020F6E70000000000000000000093
:109A1000044801214174007A08B1002070470120F8
:109A200070470000CC330020012801D0032808D162
:109A30000449002201284A7400D00020087401F073
:109A40000BBF7047CC33002070B50246022801D00E
:109A5000032A45D1234C207A002841D0012833D055
:109A6000022831D120480023022A006802D0032AAC
:109A70002AD11BE0E360017911B1012924D10DE065
:109A8000D0E90565711B4FF48056B14200D33146D1
:109A9000294481614569A9420ED015E00169491C3C
:109AA0000161426991420FD1237213E0E168491CC0
:109AB000E160082908D9E3602372022A0AD00D2147
:109AC000FEF7E2FE01F0BEFE607C28B1BDE870400A
:109AD00000F0AEBE0021F3E7BDE8704001F0BCBE6F
:109AE00070BD0000CC3300206C2B002070B541EA23
:109AF0004201DDE904564FF0A04441EA830141EA06
:109B0000052104EB800041EA0641C0F8001770BD52
:109B100070B541EA4201DDE904564FF0A04441EA44
:109B2000830141EA052104EB800041EA0641C0F8C7
:109B3000001770BD70B541EA4201DDE904564FF0EF
:109B4000A04441EA830141EA052104EB800041EA97
:109B50000641C0F8001770BD70B541EA4201DDE969
:109B600004564FF0A04441EA830141EA052104EB89
:109B7000800041EA0641C0F8001770BD1CB5002204
:109B80000B46009211460192FFF7D4FF1CBD1CB595
:109B900000220B46009211460192FFF7DDFF1CBD2B
:109BA0001CB5002100910B46012201911146FFF7DF
:109BB000C1FF1CBD1CB5002100910B460122019183
:109BC0001146FFF7C9FF1CBD4FF0A04202EB800019
:109BD000D0F8002722F44032C0F80027D0F8002740
:109BE00042EA0141C0F80017704701224FF0A0433C
:109BF000824011B1C3F808257047C3F80C2570479F
:109C000018B5084B6C4601441B68009306E000BF82
:109C100054F82030D3F81035401C08C28142F7D8E0
:109C200018BD00004CC70200034908B508440021D4
:109C300001600068009008BD006000400249405883
:109C4000012800D0002070470060004030B5124B62
:109C500001460020D3F81044224609E0157A8542D7
:109C600005D1401C0A28F7DB4FF0FF3030BD5268A9
:109C7000002AF3D1421CF9D00872D3F810242AB17B
:109C800052684A60D3F81024516030BD0022C3F8F6
:109C900010144A6030BD0000EC3400207047FCF71F
:109CA00089BD704708B5034A00924023024A00F07C
:109CB00005F808BD55BB0200EC330020F0B595B0A7
:109CC0001C4615460F4608461A9E00F053FB182105
:109CD00009A8FCF7E4FB0E96CDE9095400230822FD
:109CE00003A9384600F05BFB05980690BDF810000C
:109CF000ADF81C00BDF81200ADF81E0000208DF874
:109D000021000398082600F00300012802D0022851
:109D100018D032E003983346850AC0F3C2008DF8AC
:109D2000200003980FA9C0F38314A200384600F066
:109D300036FB09A8009006AB22460FA9284600F082
:109D400075FA1AE00398840DC0F3C2008DF8200064
:109D5000082C01D2254600E0082533462A460FA9E3
:109D6000384600F01CFB2E44641B09AB06AA2946AA
:109D70000FA800F0ADF9002CEAD1384600F000FB46
:109D800015B0F0BD0A4A012902EBC00007D0022934
:109D900007D0032907D0042907D0002070470220EC
:109DA0007047042070470079704740797047000081
:109DB00080D2020010B5FFF772FF04210348FFF7BD
:109DC00045FF02490120487210BD0000842B00208D
:109DD0002DE9F04F8DB0FEF717FB18B100200DB044
:109DE000BDE8F08F7A4C4FF0000BC4F818B4BFF305
:109DF0004F8F60680290A568D846284004EB800029
:109E000008E021680298814201D86160E6E72840B5
:109E100004EB80000C3002A9FEF728FF0028F0D1E7
:109E200005AA029901EA050304EB8303491CDB68D8
:109E300042F82030401C02910228F2D3059800F02D
:109E40000300022802D001284ED0A9E00598502234
:109E5000810D8946B2EB905F00D850210E4666F323
:109E60009F50059008315B4800F03BFA070079D01D
:109E700000F080FA4346082205A9384600F095FA1A
:109E8000029908F1080A2940681A8000001D8642DC
:109E900023D94F4D0C3530B1C2B204EB8101301AD9
:109EA00090460C3104E02946F2B20025904628463F
:109EB000C6B25346384600F078FA0AEB08032DB1D3
:109EC000324629464FEA070000F06FFA029909F17D
:109ED000030001EB900002903BE004EB810153464C
:109EE000324638460C31EFE70598C0F38310062858
:109EF00000D30620059960F38911C1F38310801CFB
:109F000005918100334800F0ECF9070048D000F0DB
:109F100031FA4346082205A9384600F046FA08F10E
:109F2000080800260FE00298434600EA0501401C9D
:109F300004EB81010290042238460C3100F035FA1E
:109F400008F10408761C0598C0F38310B042EAD8E3
:109F500047B1D4F81054D4F8180468B1384600F06A
:109F60000FFA2FE01CE0687A012804D12A682846FD
:109F70003946126890476D68002DF4D1384600F0DC
:109F8000FFF98DF800B06846FDF7B6F8D4F818046C
:109F900008B9029860609DF80000FDF7D1F811E063
:109FA000D4F8104404E02168204689688847646832
:109FB000002CF8D108480221008801EB004007A1DD
:109FC00000F06AF8FEF720FA80F0010007E70000D1
:109FD000EC34002000D30200182C00204261636B97
:109FE000656E647320666C757368656400000000BC
:109FF0002DE9F84F8146DFF89C80D01C15468A4633
:10A00000800800226946D8F80860FEF7A5F9B8B3C1
:10A01000009CA01C0090D8F808103040091A8F004E
:10A020003F1DBD4208EB800002D82A46514608E099
:10A030003A4651460C30FCF719FA1648EA1B0AEB6F
:10A0400007010C30FCF712FA4FEA1947FEF7F2FB52
:10A0500047EA0042601C304008EB8000344008EBC7
:10A060008401C260C8684FF6C07269F3C5009043AE
:10A0700065F39F5020F00300801C20F00400C860AE
:10A0800098F8200402E000BFFFF7A2FE0028FBD1F1
:10A09000BDE8F88FEC34002000231A4601F02ABEF8
:10A0A00008B5012300926A4601F024FE08BD1CB5E4
:10A0B000CDE9002302236A4601F01CFE1CBD3EB51B
:10A0C000069C8DE81C0003236A4601F013FE3EBD8A
:10A0D0002DE9F0470E4680461C46924608293ED898
:10A0E00094F80C90002020731946104601F052FBA2
:10A0F0000025B54206D218F805201AA12046FFF720
:10A1000059FB03E019A12046FFF754FB6D1C082DF5
:10A11000EFD317A12046FFF74DFB0025B54210D223
:10A1200018F80570FCF79EF90068C05D10F03E0F4E
:10A1300001D03A4600E02E220EA12046FFF73AFB5E
:10A1400003E00DA12046FFF735FB6D1C082DE5D37C
:10A1500001222146504601F0FFFA84F80C90BDE838
:10A16000F0870000202530327800000020202000F9
:10A170007C0000002563000020000000104810B59E
:10A18000FF218160002101604160C0F81814C0F80F
:10A19000141480F820140B4800F0F0F800280DD1BA
:10A1A00009480A490A4B401AC108002003E000BFD1
:10A1B00023F82000401C8842FAD3002010BD000084
:10A1C000EC34002000D3020000D3020080D2020051
:10A1D000E82B002002480349401AC00870470000DD
:10A1E00000D3020080D2020013B56846FEF7E4FFF8
:10A1F00008B100201CBD0248009950F831001CBD78
:10A2000080D2020070B508480125D0F8104480F8CB
:10A21000205405E0657221682046496888476468D3
:10A22000002CF7D170BD0000EC3400202DE9FF4771
:10A2300081460C9D00200C462F7B287398461646BD
:10A240002946184601F0A6FA072E42D2DFE806F0AA
:10A2500004090F161F2A360049462846FFF7AAFAB6
:10A2600037E0494628462268FFF7A4FA31E0D4E9EE
:10A27000002349462846FFF79DFA2AE0A06800908F
:10A28000D4E9002349462846FFF794FA21E0D4E9AF
:10A290000201CDE90001D4E9002349462846FFF731
:10A2A00089FA16E004F1080007C88DE80700D4E930
:10A2B000002349462846FFF77DFA0AE004F108002A
:10A2C0000FC88DE80F00D4E9002349462846FFF760
:10A2D00071FA00222946404601F03EFA2F73BDE88C
:10A2E000FF872DE9F041858A80462D1F4819C01C43
:10A2F000B0FBF5F0C6B24046FFF722F8041E19D0B5
:10A300000020207101206071E58000272546761E1F
:10A31000C4F800800BE04046FFF712F860B16179A5
:10A32000491C6171286005467F1CC0F80080B74257
:10A33000F1D32046BDE8F081204600F002F800206D
:10A34000F8E72DE9F041457901466B1E002201E056
:10A350000968521C9A42FBD30F680146002605E0AB
:10A3600038460C68FFF70EF82146761CAE42F7D34C
:10A37000BDE8F0810121001DFEF7C0BFFFF71AB84C
:10A3800010B504460121001DFEF7D4FF10F0FF0FA9
:10A3900004D12046BDE81040FFF7D3BF10BD38B54B
:10A3A00001240094FEF7CCFE38BD38B5002400949B
:10A3B000FEF7C6FE38BD0000064910B50020487003
:10A3C000091D0860BFF35F8F0349044800F05CFA81
:10A3D000002010BD742B0020C0C70200E033002015
:10A3E00008B500208DF800006846FCF785FEF1EE08
:10A3F000100A20F09F00E1EE100ABFF35F8F0849BA
:10A400004020C1F880029DF80000FCF799FE00F0A2
:10A4100009FA08B141DF08BD20BF40BF20BF08BD19
:10A4200004E000E0FCF70CBD20B1034909680160BD
:10A43000002070470E207047A0C902002DE9FE439E
:10A4400006460D460846FFF7EFFF00287ED18046FE
:10A45000CDF80080CDF80480012406208DF800603E
:10A46000ADF80400CDF808808DF802406946202040
:10A470002A6869DF3F4F40B100F04AFA0246388847
:10A480003D4904EB0040FFF70BFECDF800808DF84E
:10A4900001408DF80280CDF80480CDF808808DF859
:10A4A0000380694640202A6869DF40B100F030FA35
:10A4B00002463888314904EB0040FFF7F1FDCDF842
:10A4C00000808DF80060F720ADF80200CDF8048020
:10A4D000CDF80880694623202A6869DF40B100F082
:10A4E00017FA02463888264904EB0040FFF7D8FDEA
:10A4F000CDF80080CDF80480CDF808808DF80040BC
:10A500004646694601202A6869DF40B100F000FA3A
:10A51000024638881B4904EB0040FFF7C1FD4FF4A9
:10A52000B0600090019602966946A1202A6869DF12
:10A5300040B100F0EDF902463888134904EB0040C1
:10A54000FFF7AEFD00960196029600E010E08DF850
:10A5500000606946A0202A6869DF40B100F0D8F9A0
:10A5600002463888094904EB0040FFF799FD0020B6
:10A57000BDE8FE83202C0020DCD0020024D10200A4
:10A5800070D102003CD0020088D00200E8CF020067
:10A590002DE9F0410446D0F8008060DF2168194DB4
:10A5A000074641451CD92888022606EB004016A123
:10A5B000FFF772FD2888424606EB00401EA1236883
:10A5C000FFF775FDF006D0F80C012168800200F15C
:10A5D0000050421A288825A106EB0040FFF760FDD5
:10A5E000012467B1384600F093F9024628882AA171
:10A5F00004EB0040FFF754FD3846BDE8F0812E48DB
:10A600000470F9E7202C0020496E73756666696353
:10A6100069656E742052414D20616C6C6F6361748A
:10A62000656420666F722074686520536F66744499
:10A6300065766963652E00004368616E6765207406
:10A6400068652052414D207374617274206C6F6391
:10A650006174696F6E2066726F6D20307825782086
:10A66000746F20307825782E000000004D617869E5
:10A670006D756D2052414D2073697A6520666F7249
:10A68000206170706C69636174696F6E20697320FA
:10A69000307825782E00000073645F626C655F651A
:10A6A0006E61626C6528292072657475726E6564CE
:10A6B0002025732E00000000E32B002030B5154844
:10A6C000ADF5017D0078002821D04FF4FA7500BF68
:10A6D000ADF8005280A9684661DF38B1052816D070
:10A6E0000DF5017DBDE83040FCF7AABB6C460A4978
:10A6F0007DA800F0C9F806E0D0E900212046904787
:10A700007DA800F0D8F87F980028E1D0F4E70DF597
:10A71000017D30BDE32B0020A4C90200F8B5134C25
:10A720002078C0B10120A07001F0DEF9112814D00A
:10A73000022001F0F1F900258DF800506846FCF781
:10A74000DBFC11DF064625709DF80000FCF7F8FCE5
:10A750002EB13046F8BD0820F8BD0020F8BDA57028
:10A7600001F084FA032001F0D7F9F6E7E02B00208E
:10A770007CB5204C207808B108207CBD0120A07059
:10A78000002001F0B1F9112819D0002001F0C4F91E
:10A7900019480026006801908DF800606846FCF7B3
:10A7A000ABFC164901A810DF05000AD0002020707C
:10A7B0009DF80000FCF7C4FC2DB128467CBD0020AC
:10A7C0007CBD0120F3E7A67066700721162001F01A
:10A7D00042F908B1FCF734FB0721152001F03BF9E1
:10A7E00008B1FCF72DFB01F05DFA012001F094F9AE
:10A7F000E5E70000E02B002038C90200C56D02002B
:10A800000EB50749684600F03FF805E0D0E90010B2
:10A810008847684600F04FF802980028F6D10EBD30
:10A8200054C902000148007870470000E02B002066
:10A830000548817819B1007818B1FFF76FBF08207B
:10A840007047FFF795BF0000E02B00201FB568465A
:10A850004BDF30B1052814D004B0BDE81040FCF740
:10A86000EFBA084901A800F00FF806E0D0E900218E
:10A870000098904701A800F01EF803980028E6D041
:10A88000F4E71FBDC0C90200016009684160AFF371
:10A89000008010B5D0E900215368994201D1002110
:10A8A00004E0D1E90034A34202D01946816010BD12
:10A8B00008314160F0E7816800290BD00268926896
:10A8C0000A44826041684B689A4203D10831416072
:10A8D000FFF7DFBF704700000C4A10B502F5947314
:10A8E0000EE0991AC91001EBD171491002EBC101B8
:10A8F0000C68844201D90B4602E005D201F108023E
:10A900009A42EED3002010BD486810BDE0C7020097
:10A9100000B5FFF7E1FF002800D1014800BD0000AD
:10A92000CCC702004058002800D00120704708B56D
:10A93000002242504058009008BDD0F8040308405F
:10A9400000D0012070474058002800D001207047F7
:10A9500008B5002242504058009008BD08480068E1
:10A96000012110F0010F08D14FF0E020E02280F823
:10A970000024C0F88012C0F800110248016070473E
:10A9800000E100E0180500400649024600200B796E
:10A990000BB1852070470A6001220A7100224A71BA
:10A9A00070470000F82A002004490120086004488C
:10A9B0000168C1F300410029FAD170470C00004042
:10A9C00018040040002802D0014980010847704760
:10A9D00061C702002DE9F0418846054600F0A4FE5B
:10A9E000234E002828461AD0FDF74EFD304490F83B
:10A9F00048008009032802D001280ED007E04FF05C
:10AA0000A040D0F81005E84010F0010F05D0032158
:10AA10002846BDE8F041FFF7D7B80221F8E700F07B
:10AA20008FFE002822D02846FDF72EFD04464FF465
:10AA3000807000EB84000F4F81B207EB8400D0F8E8
:10AA4000102542F00102C0F810250846FFF7ECF887
:10AA5000B8F1000F0AD02846FDF716FD56F8200081
:10AA6000002803D00120A040C7F80403BDE8F0810E
:10AA70003C310020006000402DE9FC41DFF8BC8043
:10AA8000044608EB0400002790F930001346C01775
:10AA90000E46401C01D008274CE0B0781946C0F3A0
:10AAA00040022046FDF7CCFC0546401C41D0B07862
:10AAB000410719D4C0070AD04FF0A04000EB840131
:10AAC000D1F8000720F00200C1F8000707E00021DC
:10AAD0007378204600910A460191FFF719F817494B
:10AAE00020465431FEF786FCB078800718D514480C
:10AAF000317800EB8500D0F81025124B1A40C0F8D1
:10AB000010254FF4F8524FF4403302EA042203EACE
:10AB100001410A43D0F810150A43C0F8102509E096
:10AB200008EB0500327810F8481F41EA82110170E5
:10AB300000E004273846BDE8FC8100003C310020DD
:10AB400000600040FFE0FCFF4FF0A041D1F810157D
:10AB5000C14011F0010000D00120704770B5184DC0
:10AB600095F8580008B1082070BD0020411E2A1831
:10AB7000401CC0B282F830102028F8D300242046B0
:10AB8000FDF750FC641CE4B20C2CF8D300240D49F2
:10AB9000E0206C6581F8000401264020891FC1F87F
:10ABA0008002C1F800014FF4BE70FFF73DF806497E
:10ABB000F007C1F8040385F85860204670BD000016
:10ABC0003C31002006E000E000600040034890F8BF
:10ABD0005800002800D00120704700003C310020C0
:10ABE0000121B1EB507F01D1012070470020704757
:10ABF00038B50D4600F01AFE040014D000208DF880
:10AC000000006846FCF778FA207928B19DF800002A
:10AC1000FCF796FA112038BD0120256020719DF8BF
:10AC20000000FCF78DFA002038BD00000149024801
:10AC300001F0DEBA98310020002000402DE9F041FB
:10AC40000546007916460F4600EB40012D4A01EB00
:10AC5000C00102EB810494F82A1011B10820BDE86C
:10AC6000F081294951F820102868FFF7C1FF08B189
:10AC70001120F4E739462846FCF77CFA666038690B
:10AC8000206030004FF001062FD03F7F4FF48E71CF
:10AC90002868FFF74CFE4FF4A2712868FFF747FEC3
:10ACA00028681A49C0F8041328684FEA4711000BB6
:10ACB00040B2002806DA00F00F0000F1E02080F832
:10ACC000141D03E000F1E02080F800142868000B58
:10ACD00040B200F01F0206FA02F14009800000F1C4
:10ACE000E020C0F88012C0F8001128680421C0F8E4
:10ACF00000150020A061E06184F8290044F8140FD9
:10AD0000A675ACE79831002050C702008000020011
:10AD10002DE9F05F054600794FF4017600EB400322
:10AD200003EBC000344B03EB80040020636813B1D5
:10AD30002B68C3F80863A3694FF000096BB1E069A1
:10AD400038B1606810B12868C0F804631120BDE80C
:10AD5000F09FE2610120216105E0C4F82490A26126
:10AD6000E160C4F81C9094F82910014302D12846F0
:10AD700000F061FE60680028286803D0C0F8046312
:10AD80000020E4E74FF4A2763146FFF7D0FDB2464B
:10AD90004FF4927B59462868FFF7C4FD06464FF4EE
:10ADA00084712868FFF7BEFD804651462868FFF78A
:10ADB000B9FD074648EA07003043EBD056EA0700E2
:10ADC00007D12146286800F0B5FDA169606A81427B
:10ADD000E0D8C4F818900EB10320B8E70FB10F20E7
:10ADE000B5E794F8291001200029296801D00860EE
:10ADF000C6E74860C4E70000983100202DE9F0471D
:10AE0000054600790B4600EB400101EBC0002349E9
:10AE100001EB8004284600F043F810B11120BDE892
:10AE2000F0874FF00008C4F82080A360626184F8C6
:10AE300028804FF48E76474631462868FFF777FD25
:10AE400028684FF00109C0F808902146286801F0F1
:10AE500083F8606800BBD5F800A00EE094F82800E5
:10AE600008B10F2716E031465046FFF75BFD00287A
:10AE7000F4D02146504601F06FF8216A60698142A2
:10AE8000F1D331462868FFF74DFD0028F9D0286836
:10AE9000C0F80C90C4F814803846C0E79831002000
:10AEA000007900EB400101EBC000044901EB800098
:10AEB0004069002800D00120704700009831002030
:10AEC0000149024801F040BAC4310020002000408E
:10AED0002DE9F0410546164600790F46154A00EB6C
:10AEE000C00102EB810494F8201011B10820BDE8E4
:10AEF000F081114951F820102868FFF779FE08B158
:10AF00001120F4E739462846FCF778F9666038697D
:10AF100020601EB1397F2846FDF768FE28680821A9
:10AF2000C0F800150020A061E0610121606184F893
:10AF30002010DCE7C431002054C702002DE9F05F87
:10AF4000044600790E4600EBC001DFF8F0A017467A
:10AF50000AEB81053046FFF743FEB0B168684FF059
:10AF600000084FF4047910B12168C1F80893A8696A
:10AF70004FF0000B80B1E86948B1686810B12068F3
:10AF8000C0F804931120BDE8F09F1020FBE7EF61AB
:10AF90004FF001082E6102E0EE60C5E9067B002556
:10AFA0004FF488712068FFF7D3FC4FF4A27120683A
:10AFB000FFF7CEFC2068C0F83465C0F8387520680B
:10AFC000B8F1000F12D0D0F8001241F02001C0F803
:10AFD00000122079D04600EBC0010AEB81004068E6
:10AFE00038B12068C0F804932846CCE701210160FD
:10AFF000EFE74FF4887A4FF4A27951462068FFF7C3
:10B00000A2FC074649462068FFF79DFC06464FF420
:10B0100092712068FFF797FC014647EA0600084353
:10B02000EBD0227902EBC20308EB8302C2F818B01E
:10B0300001B10325002ED7D00F25D5E7C43100205C
:10B040002DE9F04704460E460079204900EBC00088
:10B0500001EB800517463046FFF7C2FD30B12046B0
:10B0600000F036F820B11120BDE8F0871020FBE792
:10B070006F61AE604FF49076002731462068FFF78D
:10B0800067FC4FF4AC7841462068FFF761FC20680C
:10B09000AA686969C0F84425C0F8481520680121EC
:10B0A0008160686878B9B14649462068FFF74BFC73
:10B0B000064641462068FFF746FC0643F4D000B13F
:10B0C0000F27002068613846CEE70000C431002019
:10B0D0000079054900EBC00001EB800040690028C1
:10B0E00000D0012070470000C43100202DE9F0415C
:10B0F00004460078002834D11B4F04251BA1388852
:10B1000005EB0040FEF7C8FF3888A28A05EB004037
:10B110002169FEF76DFF00264FF0010812E020695B
:10B12000805DFBF7BFFF05000BD0112DF7D03988EC
:10B130002A4608EB01401AA1FEF7B2FF2846FBF7AA
:10B140007FFE761CA08AB042E9D8A18A2069084413
:10B1500010F8010C0D2804D10A20FBF7A3FF1128D9
:10B16000FAD0BDE8F0810000182C0020526563651C
:10B170006976656420646174612066726F6D204237
:10B180004C45204E55532E2057726974696E6720C6
:10B1900064617461206F6E20554152542E0000008E
:10B1A0004661696C656420726563656976696E677E
:10B1B000204E5553206D6573736167652E2045726F
:10B1C000726F7220307825782E20000010B550B1B3
:10B1D00003280CD10220FCF789FF002807D0BDE826
:10B1E0001040FBF72DBEBDE8104000F01FBD10BDA4
:10B1F0000078002807D104483B21408876DF0028EA
:10B2000001D0FBF71DBE7047A02A0020F0B58BB01F
:10B21000002601960D4604468988406901AAFCF77C
:10B2200031F80AA8CDE908600227ADF82070ADF822
:10B230002260218AA88808AAADDF002819D1A06958
:10B24000002816D00998FCF7F5FD002811D0019EC2
:10B250000EB101203070182102A8FBF720F98DF8FB
:10B2600008700394A888ADF810000596A16902A89B
:10B2700088470BB0F0BD00002DE9F0418D880279C0
:10B2800000EBC5042273C97BA41D012902D0022949
:10B2900004D101E0008800E0408820802288608896
:10B2A000824219D9164E4FF004082B46318808EB1C
:10B2B000014014A1FEF7FBFE21882846A5DF0127E7
:10B2C00098B1112813D0FFF723FB024630881DA147
:10B2D00007EB0040FEF7E4FEA179E07981420DD949
:10B2E0002846BDE8F041FDF7D9B96771F4E7277149
:10B2F00031882A4608EB01401F49EBE7BDE8F081A1
:10B30000E82B002052657175657374696E6720744F
:10B310006F2075706461746520415454204D5455FC
:10B3200020746F202575206279746573206F6E20FC
:10B33000636F6E6E656374696F6E20307825782E4A
:10B340000000000073645F626C655F676174746322
:10B350005F65786368616E67655F6D74755F726560
:10B36000717565737428292072657475726E6564D1
:10B370002025732E0000000040CB02002DE9F04193
:10B380008EB007462C226846091DFBF76FF8BDF802
:10B390000060BDF8040007EBC608204CC2B288F874
:10B3A0000D202088042505EB004033461CA1FEF744
:10B3B0007EFE2088BDF8062005EB004024A1FEF7A4
:10B3C0006FFE2088BDF8042005EB004025A1FEF7A4
:10B3D00067FE2088BDF80A2005EB004026A1FEF795
:10B3E0005FFE2088BDF8082005EB004026A1FEF78F
:10B3F00057FE386900280ED02749D1E90401CDE96C
:10B400000B01ADF82E6098F80D008DF830003A6908
:10B410000BA9384690470EB0BDE8F081E82B00201C
:10B4200044617461206C656E677468207570646136
:10B4300074656420746F202575206F6E20636F6EB5
:10B440006E656374696F6E2030782530782E000049
:10B450006D61785F72785F6F63746574733A2025ED
:10B46000750000006D61785F74785F6F6374657458
:10B47000733A2025750000006D61785F72785F7403
:10B48000696D653A202575006D61785F74785F7429
:10B49000696D653A2025750024C702002DE9FC4737
:10B4A0008E88DFF89480CD8800EBC604B8F80010D1
:10B4B00007464FF0040909EB01402B4632461FA115
:10B4C000A41DFEF7F4FD172D00D217252088A842F1
:10B4D00000D805466580002020710096B8F800105D
:10B4E000238809EB01406288454623A1FEF7E7FD6A
:10B4F00021883046B5DF48B1FFF70AFA02462888AE
:10B50000012101EB00402CA1FEF7CAFD6079002863
:10B5100010D1386900280DD03349D1E90201CDE9B5
:10B520000001ADF802606088ADF804003A69694630
:10B5300038469047BDE8FC87E82B002050656572CF
:10B54000206F6E20636F6E6E656374696F6E20305E
:10B550007825782072657175657374656420616EF5
:10B5600020415454204D5455206F6620257520628B
:10B57000797465732E0000005570646174696E679C
:10B5800020415454204D545520746F20257520625D
:10B59000797465732028646573697265643A20253F
:10B5A0007529206F6E20636F6E6E656374696F6EB0
:10B5B00020307825782E000073645F626C655F67C9
:10B5C000617474735F65786368616E67655F6D74DD
:10B5D000755F7265706C7928292072657475726E5A
:10B5E00065642025732E000024C702007CB58D8879
:10B5F000064600EBC5044A8934F8060F904200D88D
:10B6000002466280172A00D2172210486280042165
:10B6100000882B4601EB00400DA1FEF748FD306984
:10B6200078B1607968B11949D1E90001CDE900012B
:10B63000ADF802506088ADF80400326969463046C2
:10B6400090470020607120717CBD0000E82B002035
:10B65000415454204D5455207570646174656420C4
:10B66000746F202575206279746573206F6E206376
:10B670006F6E6E656374696F6E2030782578202850
:10B68000726573706F6E7365292E000024C7020007
:10B69000F0B587B00C4605468E1D8988406906AA1C
:10B6A000FBF7F0FD18216846FAF7F9FE0195A0882E
:10B6B000069AADF80800039231882B89002704F11F
:10B6C0001200994202D17389022B0DD0AA899142AE
:10B6D0001ED1A96900291BD08DF8007004907089D3
:10B6E000ADF81400A96911E0002A11D0FCF7A2FB03
:10B6F00020B1069901200870022002E00698077028
:10B7000003208DF80000A969002901D06846884708
:10B7100007B0F0BD0068012803D0022801D0002046
:10B7200070470120704700000449084490F9300038
:10B73000082801DB01207047002070473C310020C1
:10B740000449084490F93000082801D201207047CC
:10B75000002070473C31002010B50C46017A0529C5
:10B7600008D0407A38B1084808A102682046FEF7A0
:10B7700021F800E01AB106A12046FEF71BF820468A
:10B78000BDE81040FEF723B8BC2B00202573000055
:10B790000D0A000038B5C3880D46044633B114A025
:10B7A000009015A216A12846FEF704F8217A052973
:10B7B0001CD0607A48B1A088FEF7E4FA164951F827
:10B7C000202016A12846FDF7F5FFA0880021FEF7EE
:10B7D0000BFD03461049207A143951F8202001B09E
:10B7E0002846BDE830400EA1FDF7E4BF38BD00009B
:10B7F0001B5B306D000000001B5B313B33316D0083
:10B8000025734C6F67732064726F707065642028B5
:10B8100025642925730D0A00BC2B00202573000028
:10B820003C25733E2025733A2000000003498842DE
:10B8300001D10348704700207047000000200040FD
:10B84000002B0020034802490068FDF71BBD0000E3
:10B85000702B002098C702002DE9F041234C0025F1
:10B86000234E207A012730B92248311D0068FDF7A8
:10B8700014FD306038B1022020723168087928B197
:10B8800001281ED116E06560BDE8F081D1E905030D
:10B89000C01A4FF48052904200D31046B7EB900F7D
:10B8A00001D2820800E001220869C96818441944DD
:10B8B00029DF03E0D1E90301084428DF58B111284A
:10B8C00012D003213068FCF7DFFF25726560BDE808
:10B8D000F041FFF7B7BF207C0028D5D1BDE8F0418B
:10B8E00000210220FEF7B0B82772CDE7CC3300204C
:10B8F0006C2B002098C7020070B5012670044FF031
:10B90000E0210025C1F88001084C4010C4F848032C
:10B91000C4F8080366602F20FFF754F8A660044CB3
:10B920002F20A560FFF74EF8A57070BD00100140F4
:10B93000282B002070B5054688690C4600284FF476
:10B94000847128460AD0FEF7F2FFD5F81805626A1E
:10B95000E1688854606A401C606270BDFEF7E7FFD2
:10B96000D5F8180570BD30B58FB005461C21684666
:10B97000FAF795FD00249DF80000019440F00C00BA
:10B980008DF80000039404940594069428788DF8AB
:10B9900036000220ADF834000C949DF830001421DC
:10B9A00020F00F00401C20F0F00010308DF8300027
:10B9B0009DF8310020F00F00401C20F0F000103006
:10B9C0008DF831009DF8320020F00600801C20F038
:10B9D000180040F001008DF8320007A8FAF75FFD6B
:10B9E0000DA807900CA808900120ADF82400F420C1
:10B9F000ADF82640ADF82800688805F10C0307AAC9
:10BA00006946AADF0FB030BD1FB501238DF80030A5
:10BA1000CDE90121D0E90012684690471FBD1FB54E
:10BA200001238DF800308DF808100192D0E9001242
:10BA3000684690471FBD10B5044600684FF49271E8
:10BA4000FEF775FF4FF484712068FEF770FF2068E1
:10BA50000121016010BD70B50D460446FBF718F9D1
:10BA600070B12846FBF726F968B16807000E002C74
:10BA70000CDA04F00F0101F1E02181F8140D09E066
:10BA800042F2010070BD42F2020070BD04F1E024F8
:10BA900084F80004002070BD38B50021012548B1AC
:10BAA00001280CD0032809D1FEF758FFBDE8384023
:10BAB000FDF714BE4FF0E020C0F8805138BD8DF87E
:10BAC00000106846FBF718FB064C207808B9FDF714
:10BAD000E9FDE068401CE060A5709DF80000FBF700
